:100000000C945F000C947C000C947C000C947C009D
:100010000C947C000C947C000C947C000C947C0070
:100020000C947C000C947C000C947C000C947C0060
:100030000C947C000C947C000C947C000C947C0050
:100040000C947C000C947C000C947C000C947C0040
:100050000C947C00036EDB363D9A9999993DABAACE
:10006000AA2A3E000000803F084AD73B3BCE016EE3
:1000700084BCBFFDC12F3D6C74319ABD56833DDAFF
:100080003D00C77F11BED9E4BB4C3E916BAAAABE0E
:10009000000000803F072C7AA5BA6CC590DA3B932C
:1000A00065FC8BBC53F810FD3C5692834DBD879D7B
:1000B0003AB63DCBC9BF5BBE73DA0FC93F0011240E
:1000C0001FBECFE5D8E0DEBFCDBF16E0A0E6B0E0B2
:1000D000EEEBF6E202C005900D92AE35B107D9F70E
:1000E00027E0AEE5B6E001C01D92A432B207E1F709
:1000F0000E94F00C0C945D130C940000613011F41C
:10010000949A0DC094980BC09798882314F4969AEB
:1001100001C09698979A880F9150B1F7089598E08A
:10012000F3CFCF93DF93D0EB60E08D2F0E947E0062
:1001300060E080E00E947E0060E080E10E947E003E
:10014000C0E061E080E00E947E00CF5FC038C9F768
:10015000DF5FD83B49F7DF91CF9108959598959A45
:1001600060E08EEA0E947E0060E085ED0E947E00E5
:1001700060E080E80E947E0060E088EA0E947E00E5
:1001800060E08FE30E947E0060E083ED0E947E00CD
:1001900060E080E00E947E0060E080E40E947E00DB
:1001A00060E08DE80E947E0060E084E10E947E00B5
:1001B00060E080E20E947E0060E080E10E947E00BC
:1001C00060E081EA0E947E0060E088EC0E947E0090
:1001D00060E08AED0E947E0060E082E10E947E0085
:1001E00060E081E80E947E0060E08FE80E947E006F
:1001F00060E089ED0E947E0060E081EF0E947E0059
:1002000060E08BED0E947E0060E080E30E947E0053
:1002100060E084EA0E947E0060E086EA0E947E0040
:1002200060E08FEA0E947E000E9491000895AF92E4
:10023000BF92CF92DF92EF92FF920F931F93CF93D3
:10024000DF9320E1829FC00111249C0122593E4F7F
:100250007901342F3F70A32E42954F706894BB24D0
:10026000B4F8B40E0F2EF0EBDF2EF02DD60E0F2EBD
:10027000F2EBCF2EF02DC60E60E08D2D0E947E0099
:1002800060E08A2D0E947E0060E08B2D0E947E003F
:10029000E7018701085F1F4F61E089910E947E009E
:1002A000C017D107C9F788E0E80EF11CD394DC1021
:1002B000E3CFDF91CF911F910F91FF90EF90DF90EF
:1002C000CF90BF90AF9008956F927F928F929F9240
:1002D000AF92BF92CF92DF92EF92FF920F931F9354
:1002E000CF93DF938C01762E642EC22F99233CF49A
:1002F0008DEF0E94170111950195110903C08BEF35
:100300000E941701C80160E177E20E943513FB01EA
:1003100080EF98ED689F4001699F900C789F900C4A
:100320001124080D191DC80168EE73E00E943513F1
:100330006B0188E19CEF689F4001699F900C789F5A
:10034000900C1124080D191DC80164E670E00E948C
:1003500035137B012CE926034001279F900C1124C3
:10036000800E911E0F2EFAE0AF2EB12CF02DC4019D
:10037000B5010E9435138B0146E04C0F460D672DE9
:100380008E2F0E941701D0E026968C2F880F680EC2
:10039000462D672D8C2D0E9417016C0E462D672D62
:1003A0008E2D0E9417016C0E462D672D802F0E9406
:1003B00017014C2F460D26EF2003C001219F900D01
:1003C0001124880D991DB5010E943513672D0E94D7
:1003D0001701DF91CF911F910F91FF90EF90DF9068
:1003E000CF90BF90AF909F908F907F906F90089527
:1003F000C0988FB9779BFECF6FB9779BFECFC09A1D
:1004000008958068C0988FB9779BFECF1FB8779BFF
:10041000FECF8FB1C09A089581E58DB91EB80895B9
:10042000CF93DF93D82FC62F6CE081E30E94F801B1
:100430006D2F82E30E94F8016C2F83E30E94F80184
:1004400060E884E30E94F80186E30E94010286FFCF
:10045000FBCFDF91CF910895CF93C82F6CE881E354
:100460000E94F8016C2F82E30E94F80160E884E3A7
:100470000E94F80186E30E94010286FFFBCF85E31C
:100480000E940102CF910895FF920F931F93CF9383
:10049000DF9360E88BE60E94F80164E08BE60E943F
:1004A000F80160E187E30E94F80161E088E30E94BF
:1004B000F80160E08CE60E94F80160E089E10E94AA
:1004C000F80168E18BE10E94F80168E08CE10E948C
:1004D000F80161E08AE10E94F80163E08DE10E9489
:1004E000F80160E38AE60E94F80161E08BE00E9477
:1004F000100260E18AE00E9410026FE18AE00E942F
:10050000100280E10E942C020CEB16E0682F70E0D4
:1005100080E090E00E949211F801608371838283F1
:10052000938381E10E942C02C0ECD6E0682F70E03A
:1005300080E090E00E949211688379838A839B8394
:1005400082E10E942C02F82E20E030E040E053E4EB
:10055000F80160817181828193810E941B1020E0EB
:1005600030E040E85BE30E94781220E030E040E8B1
:100570005FE30E941C10F801608371838283938380
:1005800020E030E040E053E4688179818A819B81FA
:100590000E941B1020E030E040E85BE30E947812EC
:1005A00020E030E040E85FE30E941C10688379831C
:1005B0008A839B836F2D70E080E090E00E9492110F
:1005C00020E030E040E053E40E941B1020E030E0E7
:1005D00040E85BE30E94781220E030E040E85FE30F
:1005E0000E941C106093C4067093C5068093C606D3
:1005F0009093C70660E18AE00E9410026DE584E2F4
:100600000E94F8016CE885E20E94F80162E086E24F
:100610000E94F80168E887E20E94F80166E18AE03A
:100620000E94100269E084E30E94F80161E887E615
:100630000E94F801DF91CF911F910F91FF900895D3
:100640008068C0988FB9779BFECF442369F0E62F6E
:10065000F72F20E01FB8779BFECF8FB190E08193FA
:1006600091932F5F2413F6CFC09A0895CF92DF9213
:10067000EF92FF920F931F93CF93DF93CDB7DEB727
:10068000AC970FB6F894DEBF0FBECDBF8C01BE0194
:100690006F5F7F4F8CE2FB0111928A95E9F746E18B
:1006A0008BE30E94200380E090E09D852F853889B0
:1006B000820F931FF8019183808380E090E09981FD
:1006C0002B813C81820F931F9383828380E090E093
:1006D0009D812F813885820F931F9583848380E0CD
:1006E00090E099852B853C85820F931F97838683A5
:1006F00080E090E099892B893C89820F931F918734
:10070000808780E090E09D892F89388D820F931F2C
:100710009387828780E090E0998D2B8D3C8D820FAE
:10072000931F9587848780E090E099A16F8D78A1D1
:10073000680F791F882777FD8095982F0E94941164
:100740002091BC063091BD064091BE065091BF0677
:100750000E9478126B017C016091680070916900C1
:10076000882777FD8095982F0E9494119B01AC01FA
:10077000C701B6010E941C100E946111F801778721
:10078000668780E090E09DA16BA17CA1680F791F36
:10079000882777FD8095982F0E9494112091C0069C
:1007A0003091C1064091C2065091C3060E94781252
:1007B0006B017C0160916A0070916B00882777FD66
:1007C0008095982F0E9494119B01AC01C701B6013E
:1007D0000E941C100E946111F801718B608B80E0F7
:1007E00090E099A56FA178A5680F791F882777FDFC
:1007F0008095982F0E9494112091C4063091C506CF
:100800004091C6065091C7060E9478126B017C0188
:1008100060916C0070916D00882777FD8095982F0E
:100820000E9494119B01AC01C701B6010E941C10EB
:100830000E946111F801738B628BAC960FB6F8942D
:10084000DEBF0FBECDBFDF91CF911F910F91FF9003
:10085000EF90DF90CF9008954F925F926F927F92CA
:100860008F929F92AF92BF92CF92DF92EF92FF92C0
:100870000F931F93CF93DF93CDB7DEB7C057D10946
:100880000FB6F894DEBF0FBECDBF6D8F7E8F8F8FFA
:1008900098A329013A01E986FA860B871C87809183
:1008A000600090916100A0916200B09163008DABF7
:1008B0009EABAFABB8AF8091760690917706A091D2
:1008C0007806B0917906898F9A8FAB8FBC8F9C0187
:1008D000AD016DA97EA98FA998AD0E94781269AB70
:1008E0007AAB8BAB9CAB8091720690917306A09112
:1008F0007406B09175068D8B9E8BAF8BB88F9C0163
:10090000AD016DA97EA98FA998AD0E94781269AF3B
:100910007AAF8BAF9CAF80916E0690916F06A091DD
:100920007006B09171068DA39EA3AFA3B8A79C01DA
:10093000AD016DA97EA98FA998AD0E9478126DA70F
:100940007EA78FA798AB298D3A8D4B8D5C8DCA0100
:10095000B9010E94781229966CAF7DAF8EAF9FAF20
:1009600029972D893E894F89588D698D7A8D8B8D78
:100970009C8D0E94781221966CAF7DAF8EAF9FAF99
:1009800021972DA13EA14FA158A5698D7A8D8B8D00
:100990009C8D0E9478122D966CAF7DAF8EAF9FAF6D
:1009A0002D972D893E894F89588DCA01B9010E9422
:1009B000781269A37AA38BA39CA32DA13EA14FA17A
:1009C00058A56D897E898F89988D0E9478126196CD
:1009D0006CAF7DAF8EAF9FAF61972DA13EA14FA1B0
:1009E00058A5CA01B9010E94781269A77AA78BA7F6
:1009F0009CA72D8D3E8D4F8D58A1CA01B9010E9433
:100A0000781269837A838B839C83A3019201C3014B
:100A1000B2010E9478129B01AC0169817A818B81BD
:100A20009C810E941C1069837A838B839C83A8011C
:100A30009701C801B7010E9478129B01AC0169813E
:100A40007A818B819C810E941C100E94DF12698335
:100A50007A838B839C839B01AC016D8D7E8D8F8D02
:100A600098A10E94F91065966CAF7DAF8EAF9FAFD5
:100A7000659729813A814B815C81C301B2010E9453
:100A8000F91069966CAF7DAF8EAF9FAF69972981E2
:100A90003A814B815C81C801B7010E94F9106D96C3
:100AA0006CAF7DAF8EAF9FAF6D97C557DF4F28817D
:100AB00039814A815B81CB58D040CA01B9010E947B
:100AC00078122B013C01C157DF4F288139814A81BF
:100AD0005B81CF58D040CA01B9010E9478129B01B6
:100AE000AC01C301B2010E941C102B013C01CD5688
:100AF000DF4F288139814A815B81C359D040CA01C7
:100B0000B9010E9478129B01AC01C301B2010E949D
:100B10001C100E94DF122B013C019B01AC01C55748
:100B2000DF4F688179818A819B81CB58D0400E94B8
:100B3000F91069837A838B839C83A3019201C15747
:100B4000DF4F688179818A819B81CF58D0400E9494
:100B5000F9106D8F7E8F8F8F98A3A3019201CD56D0
:100B6000DF4F688179818A819B81C359D0400E947F
:100B7000F91069877A878B879C8729813A814B8115
:100B80005C81CA01B9010E941C102B013C0129A102
:100B90003AA14BA15CA160E070E080E09FE30E947D
:100BA0001B1029A53AA54BA55CA50E941B10A19678
:100BB0006CAF7DAF8EAF9FAFA1972D8D3E8D4F8DCA
:100BC00058A1CA01B9010E941C10698B7A8B8B8BCA
:100BD0009C8B2DA53EA54FA558A921966CAD7DAD4A
:100BE0008EAD9FAD21970E941B10A5966CAF7DAF77
:100BF0008EAF9FAFA59729853A854B855C85CA0145
:100C0000B9010E941C1025966CAF7DAF8EAF9FAFCF
:100C1000259729AD3AAD4BAD5CAD2D966CAD7DAD54
:100C20008EAD9FAD2D970E941C10A9966CAF7DAF25
:100C30008EAF9FAFA997A1962CAD3DAD4EAD5FADE8
:100C4000A197C301B2010E9478126D837E838F83C6
:100C50009887A5962CAD3DAD4EAD5FADA597698942
:100C60007A898B899C890E9478129B01AC016D81E5
:100C70007E818F8198850E941C106D837E838F8377
:100C80009887A9962CAD3DAD4EAD5FADA997259641
:100C90006CAD7DAD8EAD9FAD25970E9478129B0106
:100CA000AC016D817E818F8198850E941C10AD966C
:100CB0006CAF7DAF8EAF9FAFAD9729962CAD3DAD9C
:100CC0004EAD5FAD299760E070E080E09FE30E9449
:100CD0001B10E1966CAF7DAF8EAF9FAFE1972DA556
:100CE0003EA54FA558A921966CAD7DAD8EAD9FADAB
:100CF00021970E941C109B01AC01C301B2010E940C
:100D000078126D837E838F83988729A53AA54BA59A
:100D10005CA5E1966CAD7DAD8EAD9FADE1970E9477
:100D20001B109B01AC0169897A898B899C890E947F
:100D300078129B01AC016D817E818F8198850E9424
:100D40001C106D837E838F83988729A93AA94BA9AC
:100D50005CA961966CAD7DAD8EAD9FAD61970E9433
:100D60001B109B01AC0125966CAD7DAD8EAD9FAD8A
:100D700025970E9478129B01AC016D817E818F8145
:100D800098850E941C106DA77EA78FA798AB29ADF0
:100D90003AAD4BAD5CAD2D966CAD7DAD8EAD9FADDE
:100DA0002D970E941B106D837E838F83988729A9BE
:100DB0003AA94BA95CA961966CAD7DAD8EAD9FAD96
:100DC00061970E941C106D877E878F87988B29A161
:100DD0003AA14BA15CA1E1966CAD7DAD8EAD9FAD0E
:100DE000E1970E941B1069AF7AAF8BAF9CAFAD96B5
:100DF0002CAD3DAD4EAD5FADAD97CA01B9010E94BE
:100E0000781269AB7AAB8BAB9CAB2DA53EA54FA5F9
:100E100058A9CA01B9010E9478129B01AC0169A9C5
:100E20007AA98BA99CA90E941C100E94DF1269ABB1
:100E30007AAB8BAB9CAB2D813E814F815885CA012B
:100E4000B9010E941C106DA77EA78FA798AB2D85B6
:100E50003E854F855889CA01B9010E941C10219610
:100E60006CAF7DAF8EAF9FAF21972DA93EA94FA943
:100E700058ADCA01B9010E94781229962CAD3DAD3A
:100E80004EAD5FAD29970E941B1029A13AA14BA13D
:100E90005CA10E941B1029A53AA54BA55CA50E9448
:100EA0001C1069A77AA78BA79CA729A93AA94BA9C7
:100EB0005CA9CA01B9010E941C1069A37AA38BA383
:100EC0009CA32D813E814F815885C301B2010E94B0
:100ED00078122B013C012D853E854F855889698903
:100EE0007A898B899C890E9478129B01AC01C3018D
:100EF000B2010E941C102B013C0129AD3AAD4BAD53
:100F00005CAD25966CAD7DAD8EAD9FAD25970E94F5
:100F100078129B01AC01C301B2010E941C109B011D
:100F2000AC010E941C10698B7A8B8B8B9C8B29A146
:100F30003AA14BA15CA1A1966CAD7DAD8EAD9FADEC
:100F4000A1970E9478122B013C0129893A894B898B
:100F50005C896D817E818F8198850E9478129B01CA
:100F6000AC01C301B2010E941C106D837E838F838C
:100F7000988729A13AA14BA15CA1A5966CAD7DAD46
:100F80008EAD9FADA5970E9478122B013C01298957
:100F90003A894B895C896D857E858F8598890E9409
:100FA00078129B01AC01C301B2010E941C106D8735
:100FB0007E878F87988B29A13AA14BA15CA1A99626
:100FC0006CAD7DAD8EAD9FADA9970E9478122B01BF
:100FD0003C0129893A894B895C8969AD7AAD8BAD31
:100FE0009CAD0E9478129B01AC01C301B2010E942A
:100FF0001C10698B7A8B8B8B9C8B29A53AA54BA5F2
:101000005CA569966CAD7DAD8EAD9FAD69970E9474
:1010100078122B013C0121962CAD3DAD4EAD5FAD5C
:1010200021976D966CAD7DAD8EAD9FAD6D970E9495
:1010300078129B01AC01C301B2010E941B1069A38D
:101040007AA38BA39CA329893A894B895C896D8DEE
:101050007E8D8F8D98A10E9478122B013C012D85E9
:101060003E854F85588969857A858B859C850E9448
:1010700078129B01AC01C301B2010E941B109B01BD
:10108000AC0169A17AA18BA19CA10E941C1069A34B
:101090007AA38BA39CA32DA53EA54FA558A96D9619
:1010A0006CAD7DAD8EAD9FAD6D970E9478122B011A
:1010B0003C0129A53AA54BA55CA565966CAD7DAD17
:1010C0008EAD9FAD65970E9478129B01AC01C30164
:1010D000B2010E941B1069A77AA78BA79CA72D813C
:1010E0003E814F81588569857A858B859C850E94D4
:1010F00078122B013C0129893A894B895C896981E5
:101100007A818B819C810E9478129B01AC01C30182
:10111000B2010E941B109B01AC0169A57AA58BA5A9
:101120009CA50E941C1069877A878B879C872196D3
:101130002CAD3DAD4EAD5FAD219765966CAD7DADEF
:101140008EAD9FAD65970E9478122B013C012DA5B5
:101150003EA54FA558A969966CAD7DAD8EAD9FADEE
:1011600069970E9478129B01AC01C301B2010E94F1
:101170001B102B013C012D853E854F8558896981C7
:101180007A818B819C810E94781269837A838B8318
:101190009C832D813E814F8158856D8D7E8D8F8DF5
:1011A00098A10E9478129B01AC0169817A818B81A0
:1011B0009C810E941B109B01AC01C301B2010E94E3
:1011C0001C1069837A838B839C832FE632E143E88A
:1011D0005AE369A17AA18BA19CA10E947812209167
:1011E0006A0630916B0640916C0650916D060E9424
:1011F0001C102B013C0160936A0670936B06809370
:101200006C0690936D062FE632E143E85AE3698558
:101210007A858B859C850E94781220916606309194
:10122000670640916806509169060E941C106D8304
:101230007E838F839887609366067093670680939A
:101240006806909369062FE632E143E85AE3698124
:101250007A818B819C810E94781220916206309164
:10126000630640916406509165060E941C106D87CC
:101270007E878F87988B6093620670936306809356
:1012800064069093650620E030E048E452E469A1EA
:101290007AA18BA19CA10E947812A60195010E94BF
:1012A0001C109B01AC01C301B2010E941C106D8F88
:1012B0007E8F8F8F98A320E030E048E452E4698568
:1012C0007A858B859C850E947812CD57DF4F2881C7
:1012D00039814A815B81C358D0400E941C109B0118
:1012E000AC016D817E818F8198850E941C10698779
:1012F0007A878B879C8720E030E048E452E469815C
:101300007A818B819C810E947812C957DF4F288196
:1013100039814A815B81C758D0400E941C109B01D3
:10132000AC016D857E858F8598890E941C102B01EC
:101330003C018091640090916500A0916600B0919D
:10134000670089839A83AB83BC83698D7A8D8B8D8B
:101350009C8D90582D8D3E8D4F8D58A10E947812F6
:101360006B017C0129853A854B855C856D897E8979
:101370008F89988D0E9478129B01AC01C701B6013C
:101380000E941B106B017C01A30192016DA17EA143
:101390008FA198A50E9478129B01AC01C701B601EC
:1013A0000E941B1029813A814B815C810E94781236
:1013B0009B01AC016DA97EA98FA998AD0E941C105C
:1013C0004B015C019B01AC016D8D7E8D8F8D98A1D1
:1013D0000E9478126B017C01A30192016D897E89C4
:1013E0008F89988D0E9478129B01AC01C701B601CC
:1013F0000E941C106B017C0129853A854B855C8518
:101400006DA17EA18FA198A50E9478129B01AC01CD
:10141000C701B6010E941B109B01AC0169817A8152
:101420008B819C810E9478129B01AC01698D7A8D21
:101430008B8D9C8D0E941C10698F7A8F8B8F9C8F57
:10144000A501940169857A858B859C850E94781217
:101450006B017C01298D3A8D4B8D5C8DC301B201EE
:101460000E9478129B01AC01C701B6010E941B10BB
:101470006B017C012D8D3E8D4F8D58A16DA17EA1FC
:101480008FA198A50E9478129B01AC01C701B601FB
:101490000E941C109B01AC0169817A818B819C8127
:1014A0000E9478129B01AC016D897E898F89988D8D
:1014B0000E941C106D8B7E8B8F8B988FA5019401E1
:1014C000C301B2010E9478126B017C01298D3A8D13
:1014D0004B8D5C8D69857A858B859C850E94781201
:1014E0009B01AC01C701B6010E941C106B017C017D
:1014F0002D893E894F89588D6D8D7E8D8F8D98A158
:101500000E9478129B01AC01C701B6010E941B101A
:101510009B01AC0169817A818B819C810E94781248
:101520009B01AC016DA17EA18FA198A50E941C100A
:101530002B013C01A5019401C501B4010E94781260
:101540006B017C01298D3A8D4B8D5C8DCA01B901EF
:101550000E9478129B01AC01C701B6010E941C10C9
:101560006B017C012D893E894F89588DCA01B901D3
:101570000E9478129B01AC01C701B6010E941C10A9
:101580006B017C01A3019201C301B2010E94781298
:101590009B01AC01C701B6010E941C100E94DF1222
:1015A0006B017C019B01AC01C501B4010E94F910E3
:1015B0006093600070936100809362009093630079
:1015C000A7019601698D7A8D8B8D9C8D0E94F910F3
:1015D00060937606709377068093780690937906E9
:1015E000A70196016D897E898F89988D0E94F910D7
:1015F00060937206709373068093740690937506D9
:10160000A7019601C301B2010E94F91060936E0612
:1016100070936F068093700690937106C059DF4FE8
:101620000FB6F894DEBF0FBECDBFDF91CF911F91F3
:101630000F91FF90EF90DF90CF90BF90AF909F9071
:101640008F907F906F905F904F9008954F925F9230
:101650006F927F928F929F92AF92BF92CF92DF92C2
:10166000EF92FF92CF93DF93CDB7DEB764970FB6BB
:10167000F894DEBF0FBECDBF8090600090906100F7
:10168000A0906200B0906300A5019401C501B4016F
:101690000E941C106D837E838F8398879B01AC0111
:1016A000C501B4010E94781269877A878B879C876D
:1016B0004090760650907706609078067090790694
:1016C000A3019201C301B2010E941C104B015C01F5
:1016D0008091720690917306A0917406B091750680
:1016E00089839A83AB83BC83C0906E06D0906F06CB
:1016F000E0907006F0907106A5019401C301B2015B
:101700000E9478129B01AC0169857A858B859C8546
:101710000E941C1020E030E040E85FE30E941B10B4
:101720006D877E878F87988B29813A814B815C8179
:10173000C501B4010E947812698B7A8B8B8B9C8BCC
:10174000A70196016D817E818F8198850E94781214
:101750009B01AC0169897A898B899C890E941C1044
:101760002D853E854F8558890E94A61023E333E3DB
:1017700045E652E40E9478126093F2067093F306F5
:101780008093F4069093F506A7019601C501B40174
:101790000E9478124B015C0129813A814B815C8166
:1017A0006D817E818F8198850E9478129B01AC01AA
:1017B000C501B4010E941B100E948010905823E3C1
:1017C00033E345E652E40E9478126093F606709384
:1017D000F7068093F8069093F906A7019601C701D2
:1017E000B6010E941C109B01AC01C701B6010E940A
:1017F00078129B01AC0169857A858B859C850E9456
:101800001C1020E030E040E85FE30E941B104B0119
:101810005C0129813A814B815C81CA01B9010E9436
:101820001C109B01AC01C701B6010E9478126B012C
:101830007C01A30192016D817E818F8198850E9438
:1018400078129B01AC01C701B6010E941C10A501D2
:1018500094010E94A61023E333E345E652E40E947C
:1018600078126093FA067093FB068093FC069093BF
:10187000FD0664960FB6F894DEBF0FBECDBFDF91B4
:10188000CF91FF90EF90DF90CF90BF90AF909F905F
:101890008F907F906F905F904F9008958FEB87BBF4
:1018A0008FE088BB8FEF84BB85BB87EF81BB12BA0B
:1018B00008957F928F929F92AF92BF92CF92DF92C4
:1018C000EF92FF920F931F93CF93DF938EEF96E0EB
:1018D0000E9436030F2EF8EC7F2EF02DC0E0D0E0F2
:1018E00000E010E0E12CF12C0F2EF6E0AF2EF7E037
:1018F000BF2EF02D0F2EF8E0CF2EF7E0DF2EF02DCB
:101900000F2EFAE08F2EF7E09F2EF02D87EC90E05F
:101910000197F1F700C000008EEF96E00E943603B9
:10192000F50180819181E80EF91EF6018081918197
:10193000080F191FF40180819181C80FD91F7A9473
:1019400029F7882799278E199F0928EC30E0B901DB
:101950000E943513472F6093BA067093BB06882701
:101960009927801B910BB9010E9435137093B9061A
:101970006093B806882799278C1B9D0BB9010E949C
:1019800035137093AB066093AA06642F83E10E941F
:10199000F8016091BA0684E10E94F8016091B906ED
:1019A00085E10E94F8016091B80686E10E94F80185
:1019B0006091AB0687E10E94F8016091AA0688E178
:1019C0000E94F801DF91CF911F910F91FF90EF904E
:1019D000DF90CF90BF90AF909F908F907F900895B1
:1019E000CF93DF93CDB7DEB76D970FB6F894DEBF18
:1019F0000FBECDBF0E944E0C0E94AE000E940C0292
:101A00000E9444020E94590C85E085BD1FBC82E003
:101A10008EBD0F2EFAEC2F2EF6E03F2EF02D1DBCC2
:101A20001CBC8EEF96E00E943603F101608171814B
:101A3000882777FD8095982F0E9494112AE939E92B
:101A400049E15FE30E9478126B017C01E0E0F7E07E
:101A500060817181882777FD8095982F0E9494116D
:101A60002DEC3CEC4CEC5EE30E9478129B01AC0147
:101A7000C701B6010E941C100E94611169877A8714
:101A80008B879C8729853A85F10131832083ECEC93
:101A9000F6E060817181882777FD8095982F0E94FC
:101AA00094112AE939E949E15FE30E9478126B0158
:101AB0007C01E2E0F7E060817181882777FD809505
:101AC000982F0E9494112DEC3CEC4CEC5EE30E94AC
:101AD00078129B01AC01C701B6010E941C100E9444
:101AE000611169837A838B839C8329813A81ECEC31
:101AF000F6E031832083EEECF6E060817181882787
:101B000077FD8095982F0E9494112AE939E949E1DF
:101B10005FE30E9478126B017C01E4E0F7E06081F2
:101B20007181882777FD8095982F0E9494112DEC64
:101B30003CEC4CEC5EE30E9478129B01AC01C701C7
:101B4000B6010E941C100E9461116D837E838F83F9
:101B500098872D813E81EEECF6E031832083E0ED25
:101B6000F6E060817181882777FD8095982F0E942B
:101B7000941123E333E343E75FE30E9478126B01A0
:101B80007C01E6E0F7E060817181882777FD809530
:101B9000982F0E9494112DEC3CEC4CE45DE30E94E4
:101BA00078129B01AC01C701B6010E941C100E9473
:101BB00061114B015C01E0EDF6E071836083E2EDC1
:101BC000F6E060817181882777FD8095982F0E94CB
:101BD000941123E333E343E75FE30E9478126B0140
:101BE0007C01E8E0F7E060817181882777FD8095CE
:101BF000982F0E9494112DEC3CEC4CE45DE30E9484
:101C000078129B01AC01C701B6010E941C100E9412
:101C100061116D877E878F87988B2D853E85E2EDDC
:101C2000F6E031832083E4EDF6E06081718188275E
:101C300077FD8095982F0E94941123E333E343E7C7
:101C40005FE30E9478126B017C01EAE0F7E06081BB
:101C50007181882777FD8095982F0E9494112DEC33
:101C60003CEC4CE45DE30E9478129B01AC01C7019F
:101C7000B6010E941C100E9461112B013C01E4ED91
:101C8000F6E071836083E6EDF6E06081718188277C
:101C900077FD8095982F0E9494112AE939E949E14E
:101CA0005FE30E9478126B017C0160910C077091D8
:101CB0000D07882777FD8095982F0E9494112DECB1
:101CC0003CEC4CEC5EE30E9478129B01AC01C70136
:101CD000B6010E941C100E946111698B7A8B8B8B5C
:101CE0009C8B29893A89E6EDF6E03183208308ED63
:101CF00016E0F80160817181882777FD8095982F23
:101D00000E9494112AE939E949E15FE30E947812BF
:101D10006B017C0160910E0770910F07882777FD9A
:101D20008095982F0E9494112DEC3CEC4CEC5EE3D6
:101D30000E9478129B01AC01C701B6010E941C10E1
:101D40000E9461116D8B7E8B8F8B988F2D893E89C0
:101D5000F801318320830AED16E0F801608171817A
:101D6000882777FD8095982F0E9494112AE939E9F8
:101D700049E15FE30E9478126B017C0160911007DA
:101D800070911107882777FD8095982F0E949411F4
:101D90002DEC3CEC4CEC5EE30E9478129B01AC0114
:101DA000C701B6010E941C100E946111698F7A8FD1
:101DB0008B8F9C8F298D3A8DF80131832083B4015C
:101DC000882777FD8095982F0E94941120E931ECA7
:101DD00049EF5CE30E9478125B016C01609384061A
:101DE000709385068093860690938706ED85FE8521
:101DF000BF01882777FD8095982F0E94941120E9D4
:101E000031EC49EF5CE30E947812F62EE72E982E13
:101E1000892E862F9E2DA92DB82D8093880690930C
:101E20008906A0938A06B0938B06B201882777FDB6
:101E30008095982F0E94941120E931EC49EF5CE3E2
:101E40000E947812062F7D878D8F192F472F382FEC
:101E5000862F942FA32FB12F80938C0690938D06FD
:101E6000A0938E06B0938F062D813E81B9018827FD
:101E700077FD8095982F0E9494116D837E838F83C8
:101E80009887E981FA81BF01882777FD8095982F8F
:101E90000E94941169837A838B839C8329853A8578
:101EA000B901882777FD8095982F0E9494112B0106
:101EB0003C01898D9A8D919581959109BC01882766
:101EC00077FD8095982F0E9494119F938F937F9315
:101ED0006F93E989FA89BF01882777FD8095982F4C
:101EE0000E9494119F938F937F936F932D893E89C6
:101EF000B901882777FD8095982F0E9494119F93B0
:101F00008F937F936F931F933D8D3F938D858F9319
:101F10000F938F929F92EF92FF92ED80FE800F8140
:101F2000188529813A814B815C81C301B2010E94ED
:101F30002C040E94260B6091F2067091F3068091AA
:101F4000F4069091F5060E946111DC01CB0121E0BD
:101F500040E060E00E94640121E042E360E0E6E0EE
:101F6000F7E0808191810E9464016091F606709192
:101F7000F7068091F8069091F9060E946111DC0144
:101F8000CB0121E040E062E00E94640121E042E3F5
:101F900062E0E8E0F7E0808191810E946401609155
:101FA000FA067091FB068091FC069091FD060E9456
:101FB0006111DC01CB0121E040E064E00E9464019A
:101FC00021E042E364E0EAE0F7E0808191810E9451
:101FD00064010CB51DB5B80180E090E00E9492113B
:101FE00060935E0670935F0680936006909361062F
:101FF00020E034E244EF59E40E94F9106093640059
:1020000070936500809366009093670021E040E044
:1020100066E0C8010E94640121E042E366E080912D
:102020007E0690917F060E9464010FB6F894DEBF91
:102030000FBECDBFF4CC5058BB27AA270ED017C275
:1020400008D230F00DD220F031F49F3F11F41EF48D
:10205000C7C10EF4E095E7FBBDC1E92F19D280F3AB
:10206000BA17620773078407950718F071F49EF595
:1020700031C20EF4E0950B2EBA2FA02D0B01B90141
:1020800090010C01CA01A0011124FF27591B99F0EE
:10209000593F50F4503E68F11A16F040A22F232FFA
:1020A000342F4427585FF3CF469537952795A7954A
:1020B000F0405395C9F77EF41F16BA0B620B730BF1
:1020C000840BBAF09150A1F0FF0FBB1F661F771F62
:1020D000881FC2F70EC0BA0F621F731F841F48F417
:1020E000879577956795B795F7959E3F08F0B3CF9D
:1020F0009395880F08F09927EE0F97958795089587
:102100009F939F77EEE389379E0720F4E4E5F0E0A4
:102110008FD109C044D19058A2EA2AED3FE049ECA2
:102120005FE39BDFA4D10F9007FC9058089591D1F5
:1021300058F080E891E009F49EEF92D128F040E851
:1021400051E059F45EEF09C04BC1C4C1E92FE078FA
:102150009FD168F3092E052AC1F3261737074807D0
:10216000590738F00E2E07F8E02569F0E025E06405
:102170000AC0EF6307F8009407FADB01B9019D017B
:10218000DC01CA01AD01EF9343D071D10AD05F9158
:10219000552331F02BED3FE049E450FD49EC4CCFA5
:1021A0000895DF93DD27B92FBF7740E85FE3161668
:1021B000170648075B0710F4D92F93D19F938F938D
:1021C0007F936F933AD2E8E6F0E00DD150D12F9192
:1021D0003F914F915F9198D1DD2349F09058A2EA49
:1021E0002AED3FE049EC5FE3D0785D2736DFDF91F1
:1021F0003EC10CD03CC134D140F02BD130F021F4A1
:102200005F3F19F0E7C0511166C1EAC041D198F3B0
:102210009923C9F35523B1F3951B550BBB27AA2767
:1022200062177307840738F09F5F5F4F220F331FD9
:10223000441FAA1FA9F333D00E2E3AF0E0E830D0A5
:1022400091505040E695001CCAF729D0FE2F27D0A8
:10225000660F771F881FBB1F261737074807AB0776
:10226000B0E809F0BB0B802DBF01FF2793585F4FEB
:102270002AF09E3F510568F0ADC02DC15F3FECF3E1
:10228000983EDCF3869577956795B795F7959F5FB0
:10229000C9F7880F911D9695879597F90895E1E004
:1022A000660F771F881FBB1F621773078407BA0763
:1022B00020F0621B730B840BBA0BEE1F88F7E095BE
:1022C000089504D06894B11106C10895E9D088F04A
:1022D0009F5790F0B92F9927B751A0F0D1F0660F12
:1022E000771F881F991F1AF0BA95C9F712C0B1302D
:1022F00081F0F0D0B1E00895EDC0672F782F8827E6
:10230000B85F39F0B93FCCF3869577956795B3956B
:10231000D9F73EF490958095709561957F4F8F4FDA
:102320009F4F0895E89409C097FB3EF490958095DF
:10233000709561957F4F8F4F9F4F9923A9F0F92F8B
:1023400096E9BB279395F695879577956795B79509
:10235000F111F8CFFAF4BB0F11F460FF1BC06F5FEF
:102360007F4F8F4F9F4F16C0882311F096E911C001
:10237000772321F09EE8872F762F05C0662371F022
:1023800096E8862F70E060E02AF09A95660F771F36
:10239000881FDAF7880F9695879597F90895DF9348
:1023A000CF931F930F938B01EC01E5E9F0E01BD075
:1023B0005ED09801AE018B01EC0160E070E080E836
:1023C0009FE339DEFCD09801AE010F911F91CF91B0
:1023D000DF919AC097F99F6780E870E060E0089508
:1023E0009FEF80EC0895DF93CF931F930F93FF929D
:1023F000EF92DF927B018C01689405C0DA2EEF0129
:1024000083D0FE01E894A591259135914591559190
:10241000AEF3EF0122DEFE019701A801DA9479F70D
:10242000DF90EF90FF900F911F91CF91DF91089572
:102430009F938F937F936F93FF93EF939B01AC01D7
:1024400057D0EF91FF91CFDF2F913F914F915F9147
:102450004FC000240A941616170618060906089598
:1024600000240A9412161306140605060895092E70
:102470000394000C11F4882352F0BB0F40F4BF2BDF
:1024800011F460FF04C06F5F7F4F8F4F9F4F08951F
:1024900057FD9058440F551F59F05F3F71F0479515
:1024A000880F97FB991F61F09F3F79F087950895FA
:1024B000121613061406551FF2CF4695F1DF08C019
:1024C000161617061806991FF1CF86957105610536
:1024D00008940895E894BB2766277727CB0197F9DE
:1024E00008959B01AC0160E070E080E89FE381CE3D
:1024F0000BD0BDCFAEDF28F0B3DF18F0952309F085
:1025000069CF6ECF1124E7CFC3DFA0F3959FD1F33E
:10251000950F50E0551F629FF001729FBB27F00D91
:10252000B11D639FAA27F00DB11DAA1F649F6627E6
:10253000B00DA11D661F829F2227B00DA11D621F35
:10254000739FB00DA11D621F839FA00D611D221FEF
:10255000749F3327A00D611D231F849F600D211DD3
:10256000822F762F6A2F11249F5750408AF0E1F076
:1025700088234AF0EE0FFF1FBB1F661F771F881FBF
:1025800091505040A9F79E3F510570F023CFA3CF43
:102590005F3FECF3983EDCF3869577956795B795AA
:1025A000F795E7959F5FC1F7FE2B880F911D9695D4
:1025B000879597F9089511F40EF412CF41C070DF9A
:1025C000D0F39923D9F3CEF39F57550B87FF46D00D
:1025D0000024A0E640EA900180585695979528F48B
:1025E000805C660F771F881F20F026173707480783
:1025F00030F4621B730B840B202931294A2BA695DA
:1026000017940794202531254A2758F7660F771F1E
:10261000881F20F026173707480730F4620B730B2A
:10262000840B200D311D411DA09581F7B901842F28
:102630009158880F9695879508959B01AC0158CFC6
:102640009F3F31F0915020F4879577956795B79526
:10265000880F911D9695879597F908959150504050
:10266000660F771F881FD2F7089597FB072E16F481
:10267000009407D077FD09D00E94491307FC05D0CC
:102680003EF4909581959F4F0895709561957F4F89
:102690000895AA1BBB1B51E107C0AA1FBB1FA617A9
:1026A000B70710F0A61BB70B881F991F5A95A9F7FB
:0E26B00080959095BC01CD010895F894FFCF60
:1026BE000000803F0AD7A33B1E0024FF69000000E4
:1026CE0000000000000000000000000000000000FC
:1026DE0000F8000000000000003330000000001081
:1026EE000C06100C0600000000000000000040C0A8
:1026FE007840C0784000043F04043F04040000709A
:10270E0088FC08300000001820FF211E0000F00891
:10271E00F000E018000000211C031E211E0000F036
:10272E000888700000001E2123241927211010167E
:10273E000E0000000000000000000000000000007D
:10274E0000E01804020000000007182040000002FC
:10275E000418E00000000040201807000000404070
:10276E0080F0804040000202010F010202000000D2
:10277E0000F0000000000101011F01010100000036
:10278E0000000000000080B070000000000000009B
:10279E000000000000000001010101010101000024
:1027AE0000000000000000303000000000000000BB
:1027BE00000080601804006018060100000000E0B0
:1027CE0010080810E000000F102020100F0000105D
:1027DE0010F8000000000020203F202000000070B4
:1027EE0008080888700000302824222130000030AC
:1027FE000888884830000018202020110E000000A4
:10280E00C02010F8000000070424243F240000F824
:10281E000888880808000019212020110E0000E009
:10282E00108888180000000F112020110E000038AB
:10283E000808C83808000000003F000000000070C3
:10284E00880808887000001C222121221C0000E04C
:10285E0010080810E0000000312222110F000000C5
:10286E0000C0C0000000000000303000000000007A
:10287E0000800000000000008060000000000000EA
:10288E008040201008000001020408102000404083
:10289E0040404040400004040404040404000008C6
:1028AE00102040800000002010080402010000707B
:1028BE0048080808F0000000003036010000C03063
:1028CE00C828E810E0000718272423140B00000086
:1028DE00C038E0000000203C23020227382008F810
:1028EE00888888700000203F202020110E00C03004
:1028FE00080808083800071820202010080008F8DB
:10290E0008080810E000203F202020100F0008F8D3
:10291E008888E8081000203F20202320180008F89F
:10292E008888E8081000203F200003000000C03017
:10293E0008080838000007182020221E020008F898
:10294E0008000008F808203F210101213F2000085F
:10295E0008F8080800000020203F2020000000009A
:10296E000808F8080800C08080807F00000008F882
:10297E0088C028180800203F20012638200008F8BB
:10298E00080000000000203F20202020300008F822
:10299E00F800F8F80800203F003F003F200008F83C
:1029AE0030C00008F808203F200007183F00E01054
:1029BE0008080810E0000F10202020100F0008F863
:1029CE0008080808F000203F210101010000E01076
:1029DE0008080810E0000F18242438504F0008F89B
:1029EE00888888887000203F2000030C30200070FB
:1029FE008808080838000038202121221C001808F9
:102A0E0008F8080818000000203F2000000008F811
:102A1E0008000008F808001F202020201F0008785A
:102A2E00880000C83808000007380E010000F808BA
:102A3E0000F80008F800033C0700073C03000818E4
:102A4E0068808068180820302C03032C302008384A
:102A5E00C800C83808000000203F20000000100801
:102A6E000808C83808002038262120201800000049
:102A7E0000FE020202000000007F40404000000CF9
:102A8E0030C000000000000000010638C000000247
:102A9E000202FE000000004040407F0000000000E7
:102AAE00040202020400000000000000000000000A
:102ABE000000000000008080808080808080000206
:102ACE0002040000000000000000000000000000F2
:102ADE008080808000000019242222223F2008F8E6
:102AEE00008080000000003F112020110E00000029
:102AFE00008080800000000E1120202011000000B8
:102B0E0000808088F800000E112020103F20000069
:102B1E00808080800000001F22222222130000806D
:102B2E0080F0888888180020203F202000000000B8
:102B3E00808080808000006B94949493600008F8ED
:102B4E00008080800000203F210000203F20008078
:102B5E009898000000000020203F20200000000078
:102B6E0000809898000000C08080807F000008F8E8
:102B7E00000080808000203F24022D3020000008BD
:102B8E0008F8000000000020203F20200000808078
:102B9E00808080808000203F20003F20003F80808A
:102BAE00008080800000203F210000203F20000098
:102BBE00808080800000001F202020201F00808049
:102BCE0000808000000080FFA12020110E00000078
:102BDE00008080808000000E112020A0FF80808069
:102BEE0080008080800020203F2120000100000016
:102BFE0080808080800000332424242419000080EB
:102C0E0080E0808000000000001F202000008080F7
:102C1E00000000808000001F202020103F208080B8
:102C2E0080000080808000010E3008060100808048
:102C3E000080008080800F300C030C300F0000806D
:102C4E008000808080000020312E0E312000808098
:102C5E0080000080808080818E70180601000080C8
:102C6E008080808080000021302C222130000000E6
:102C7E000000807C020200000000003F4040000087
:102C8E000000FF00000000000000FF000000000236
:102C9E00027C800000000040403F00000000000663
:0E2CAE0001010202040400000000000000000A
:00000001FF
