:100000000C945F000C947C000C947C000C947C009D
:100010000C947C000C947C000C947C000C947C0070
:100020000C947C000C947C000C947C000C947C0060
:100030000C947C000C947C000C947C000C947C0050
:100040000C947C000C947C000C947C000C947C0040
:100050000C947C00036EDB363D9A9999993DABAACE
:10006000AA2A3E000000803F084AD73B3BCE016EE3
:1000700084BCBFFDC12F3D6C74319ABD56833DDAFF
:100080003D00C77F11BED9E4BB4C3E916BAAAABE0E
:10009000000000803F072C7AA5BA6CC590DA3B932C
:1000A00065FC8BBC53F810FD3C5692834DBD879D7B
:1000B0003AB63DCBC9BF5BBE73DA0FC93F0011240E
:1000C0001FBECFE5D8E0DEBFCDBF16E0A0E6B0E0B2
:1000D000EEECF3E202C005900D92AE35B107D9F710
:1000E00027E0AEE5B6E001C01D92A232B207E1F70B
:1000F0000E944D0D0C94E5110C940000613011F438
:10010000949A0DC094980BC09798882314F4969AEB
:1001100001C09698979A880F9150B1F7089598E08A
:10012000F3CFCF93DF93D0EB60E08D2F0E947E0062
:1001300060E080E00E947E0060E080E10E947E003E
:10014000C0E061E080E00E947E00CF5FC038C9F768
:10015000DF5FD83B49F7DF91CF9108959598959A45
:1001600060E08EEA0E947E0060E085ED0E947E00E5
:1001700060E080E80E947E0060E088EA0E947E00E5
:1001800060E08FE30E947E0060E083ED0E947E00CD
:1001900060E080E00E947E0060E080E40E947E00DB
:1001A00060E08DE80E947E0060E084E10E947E00B5
:1001B00060E080E20E947E0060E080E10E947E00BC
:1001C00060E081EA0E947E0060E088EC0E947E0090
:1001D00060E08AED0E947E0060E082E10E947E0085
:1001E00060E081E80E947E0060E08FE80E947E006F
:1001F00060E089ED0E947E0060E081EF0E947E0059
:1002000060E08BED0E947E0060E080E30E947E0053
:1002100060E084EA0E947E0060E086EA0E947E0040
:1002200060E08FEA0E947E000E9491000895AF92E4
:10023000BF92CF92DF92EF92FF920F931F93CF93D3
:10024000DF9320E1829FC00111249C0122593E4F7F
:100250007901342F3F70A32E42954F706894BB24D0
:10026000B4F8B40E0F2EF0EBDF2EF02DD60E0F2EBD
:10027000F2EBCF2EF02DC60E60E08D2D0E947E0099
:1002800060E08A2D0E947E0060E08B2D0E947E003F
:10029000E7018701085F1F4F61E089910E947E009E
:1002A000C017D107C9F788E0E80EF11CD394DC1021
:1002B000E3CFDF91CF911F910F91FF90EF90DF90EF
:1002C000CF90BF90AF9008956F927F928F929F9240
:1002D000AF92BF92CF92DF92EF92FF920F931F9354
:1002E000CF93DF938C01762E642EC22F99233CF49A
:1002F0008DEF0E94170111950195110903C08BEF35
:100300000E941701C80160E177E20E94BD11FB0164
:1003100080EF98ED689F4001699F900C789F900C4A
:100320001124080D191DC80168EE73E00E94BD116B
:100330006B0188E19CEF689F4001699F900C789F5A
:10034000900C1124080D191DC80164E670E00E948C
:10035000BD117B012CE926034001279F900C11243D
:10036000800E911E0F2EFAE0AF2EB12CF02DC4019D
:10037000B5010E94BD118B0146E04C0F460D672D63
:100380008E2F0E941701D0E026968C2F880F680EC2
:10039000462D672D8C2D0E9417016C0E462D672D62
:1003A0008E2D0E9417016C0E462D672D802F0E9406
:1003B00017014C2F460D26EF2003C001219F900D01
:1003C0001124880D991DB5010E94BD11672D0E9451
:1003D0001701DF91CF911F910F91FF90EF90DF9068
:1003E000CF90BF90AF909F908F907F906F90089527
:1003F000C0988FB9779BFECF6FB9779BFECFC09A1D
:1004000008958068C0988FB9779BFECF1FB8779BFF
:10041000FECF8FB1C09A089581E58DB91EB80895B9
:10042000CF93DF93D82FC62F6CE081E30E94F801B1
:100430006D2F82E30E94F8016C2F83E30E94F80184
:1004400060E884E30E94F80186E30E94010286FFCF
:10045000FBCFDF91CF910895CF93C82F6CE881E354
:100460000E94F8016C2F82E30E94F80160E884E3A7
:100470000E94F80186E30E94010286FFFBCF85E31C
:100480000E940102CF910895FF920F931F93CF9383
:10049000DF9360E88BE60E94F80161E08BE60E9442
:1004A000F80160E08CE60E94F80167E08AE10E94B2
:1004B000F80168E18BE10E94F80168E08CE10E949C
:1004C000F80160E08DE10E94F80160E387E30E949B
:1004D000F80160E484E20E94F80160E28AE60E948A
:1004E000F80161E08BE00E94100260E18AE00E9466
:1004F00010026FE18AE00E94100280E10E942C024B
:100500000AEB16E0682F70E080E090E00E941A107D
:10051000F801608371838283938381E10E942C02BE
:10052000CEEBD6E0682F70E080E090E00E941A10D9
:10053000688379838A839B8382E10E942C02F82E50
:1005400020E030E040E053E4F80160817181828175
:1005500093810E94A30E20E030E040E85BE30E941C
:10056000001120E030E040E85FE30E94A40EF801B3
:10057000608371838283938320E030E040E053E422
:10058000688179818A819B810E94A30E20E030E0FE
:1005900040E85BE30E94001120E030E040E85FE3C8
:1005A0000E94A40E688379838A839B836F2D70E0F9
:1005B00080E090E00E941A1020E030E040E053E438
:1005C0000E94A30E20E030E040E85BE30E940011AF
:1005D00020E030E040E85FE30E94A40E6093C20692
:1005E0007093C3068093C4069093C50660E18AE0C9
:1005F0000E9410026DE584E20E94F8016CE885E239
:100600000E94F80162E086E20E94F80168E887E251
:100610000E94F80166E18AE00E94100269E084E32A
:100620000E94F80161E887E60E94F801DF91CF910E
:100630001F910F91FF9008958068C0988FB9779BA4
:10064000FECF442369F0E62FF72F20E01FB8779BF9
:10065000FECF8FB190E0819391932F5F2413F6CF5B
:10066000C09A0895CF92DF92EF92FF920F931F935B
:10067000CF93DF93CDB7DEB7AC970FB6F894DEBF5C
:100680000FBECDBF8C01BE016F5F7F4F8CE2FB01BF
:1006900011928A95E9F746E18BE30E941C0380E002
:1006A00090E09D852F853889820F931FF8019183F3
:1006B000808380E090E099812B813C81820F931FA1
:1006C0009383828380E090E09D812F813885820F23
:1006D000931F9583848380E090E099852B853C85EA
:1006E000820F931F9783868380E090E099892B89FE
:1006F0003C89820F931F9187808780E090E09D89DD
:100700002F89388D820F931F9387828780E090E036
:10071000998D2B8D3C8D820F931F9587848780E068
:1007200090E099A16F8D78A1680F791F882777FDD8
:100730008095982F0E941C102091BA063091BB061C
:100740004091BC065091BD060E9400116B017C01D6
:100750006091680070916900882777FD8095982FD7
:100760000E941C109B01AC01C701B6010E94A40E9F
:100770000E94E90FF8017787668780E090E09DA1ED
:100780006BA17CA1680F791F882777FD8095982F32
:100790000E941C102091BE063091BF064091C006F9
:1007A0005091C1060E9400116B017C0160916A00AA
:1007B00070916B00882777FD8095982F0E941C1000
:1007C0009B01AC01C701B6010E94A40E0E94E90F73
:1007D000F801718B608B80E090E099A56FA178A5FE
:1007E000680F791F882777FD8095982F0E941C102D
:1007F0002091C2063091C3064091C4065091C506AF
:100800000E9400116B017C0160916C0070916D0081
:10081000882777FD8095982F0E941C109B01AC01C2
:10082000C701B6010E94A40E0E94E90FF801738B64
:10083000628BAC960FB6F894DEBF0FBECDBFDF91D2
:10084000CF911F910F91FF90EF90DF90CF9008957F
:100850004F925F926F927F928F929F92AF92BF92D0
:10086000CF92DF92EF92FF920F931F93CF93DF937C
:10087000CDB7DEB7C057D1090FB6F894DEBF0FBEB3
:10088000CDBF6D877E878F87988B29013A01E986D6
:10089000FA860B871C878091600090916100A0917F
:1008A0006200B091630089AB9AABABABBCAB8091FB
:1008B000740690917506A0917606B09177068D8F9B
:1008C0009E8FAF8FB8A39C01AD0169A97AA98BA9AE
:1008D0009CA90E9400116DA77EA78FA798AB80915D
:1008E000700690917106A0917206B0917306898F7F
:1008F0009A8FAB8FBC8F9C01AD0169A97AA98BA996
:100900009CA90E94001121966CAF7DAF8EAF9FAF66
:10091000219780916C0690916D06A0916E06B09122
:100920006F0689A39AA3ABA3BCA39C01AD0169A9DF
:100930007AA98BA99CA90E94001169A77AA78BA705
:100940009CA72D8D3E8D4F8D58A1CA01B9010E94E3
:10095000001129966CAF7DAF8EAF9FAF2997298D7F
:100960003A8D4B8D5C8D6D8D7E8D8F8D98A10E9403
:10097000001125966CAF7DAF8EAF9FAF259729A153
:100980003AA14BA15CA16D8D7E8D8F8D98A10E94A7
:1009900000112D966CAF7DAF8EAF9FAF2D97298D37
:1009A0003A8D4B8D5C8DCA01B9010E9400116DA377
:1009B0007EA38FA398A729A13AA14BA15CA1698D21
:1009C0007A8D8B8D9C8D0E94001161966CAF7DAFEE
:1009D0008EAF9FAF619729A13AA14BA15CA1CA013B
:1009E000B9010E9400116DAB7EAB8FAB98AF2D8526
:1009F0003E854F855889CA01B9010E94001169835B
:100A00007A838B839C83A3019201C301B2010E946C
:100A100000119B01AC0169817A818B819C810E94CC
:100A2000A40E69837A838B839C83A8019701C801F4
:100A3000B7010E9400119B01AC0169817A818B8111
:100A40009C810E94A40E0E94671169837A838B8324
:100A50009C839B01AC016D857E858F8598890E9462
:100A6000810F65966CAF7DAF8EAF9FAF6597298183
:100A70003A814B815C81C301B2010E94810F69966A
:100A80006CAF7DAF8EAF9FAF699729813A814B8163
:100A90005C81C801B7010E94810F6D966CAF7DAF7C
:100AA0008EAF9FAF6D97C557DF4F288139814A813F
:100AB0005B81CB58D040CA01B9010E9400112B01C3
:100AC0003C01C157DF4F288139814A815B81CF5872
:100AD000D040CA01B9010E9400119B01AC01C301C1
:100AE000B2010E94A40E2B013C01CD56DF4F28819C
:100AF00039814A815B81C359D040CA01B9010E9442
:100B000000119B01AC01C301B2010E94A40E0E941E
:100B100067112B013C019B01AC01C557DF4F688178
:100B200079818A819B81CB58D0400E94810F698353
:100B30007A838B839C83A3019201C157DF4F688125
:100B400079818A819B81CF58D0400E94810F6D8727
:100B50007E878F87988BA3019201CD56DF4F6881E6
:100B600079818A819B81C359D0400E94810F698716
:100B70007A878B879C8729813A814B815C81CA0166
:100B8000B9010E94A40E2B013C012DA13EA14FA151
:100B900058A560E070E080E09FE30E94A30E2DA9BD
:100BA0003EA94FA958AD0E94A30EA1966CAF7DAF90
:100BB0008EAF9FAFA1972D853E854F855889CA017D
:100BC000B9010E94A40E6D8B7E8B8F8B988F29A507
:100BD0003AA54BA55CA525966CAD7DAD8EAD9FADC0
:100BE00025970E94A30EA5966CAF7DAF8EAF9FAFE9
:100BF000A59729853A854B855C85CA01B9010E9474
:100C0000A40E69AF7AAF8BAF9CAF21962CAD3DADF2
:100C10004EAD5FAD21972D966CAD7DAD8EAD9FAD88
:100C20002D970E94A40EA9966CAF7DAF8EAF9FAF9B
:100C3000A997A1962CAD3DAD4EAD5FADA197C30177
:100C4000B2010E9400116D837E838F839887A596E1
:100C50002CAD3DAD4EAD5FADA5976D897E898F8979
:100C6000988D0E9400119B01AC016D817E818F8166
:100C700098850E94A40E6D837E838F839887A996A2
:100C80002CAD3DAD4EAD5FADA99769AD7AAD8BADE5
:100C90009CAD0E9400119B01AC016D817E818F8112
:100CA00098850E94A40EAD966CAF7DAF8EAF9FAFBE
:100CB000AD9729962CAD3DAD4EAD5FAD299760E067
:100CC00070E080E09FE30E94A30EE1966CAF7DAFE1
:100CD0008EAF9FAFE19729A53AA54BA55CA52596B8
:100CE0006CAD7DAD8EAD9FAD25970E94A40E9B018E
:100CF000AC01C301B2010E9400116D837E838F831A
:100D000098872DA93EA94FA958ADE1966CAD7DAD50
:100D10008EAD9FADE1970E94A30E9B01AC016D8942
:100D20007E898F89988D0E9400119B01AC016D8195
:100D30007E818F8198850E94A40E6D837E838F8330
:100D400098872DA53EA54FA558A961966CAD7DADA0
:100D50008EAD9FAD61970E94A30E9B01AC0169AD62
:100D60007AAD8BAD9CAD0E9400119B01AC016D81F1
:100D70007E818F8198850E94A40E69A77AA78BA790
:100D80009CA721962CAD3DAD4EAD5FAD21972D9624
:100D90006CAD7DAD8EAD9FAD2D970E94A30E6D8382
:100DA0007E838F8398872DA53EA54FA558A9619670
:100DB0006CAD7DAD8EAD9FAD61970E94A40E698B29
:100DC0007A8B8B8B9C8B2DA13EA14FA158A5E196D0
:100DD0006CAD7DAD8EAD9FADE1970E94A30E2196C7
:100DE0006CAF7DAF8EAF9FAF2197AD962CAD3DAD73
:100DF0004EAD5FADAD97CA01B9010E9400116DA75C
:100E00007EA78FA798AB29A53AA54BA55CA5CA01DB
:100E1000B9010E9400119B01AC016DA57EA58FA5B3
:100E200098A90E94A40E0E9467116DA77EA78FA7A4
:100E300098AB2D813E814F815885CA01B9010E942E
:100E4000A40E69A77AA78BA79CA729893A894B8901
:100E50005C89CA01B9010E94A40E25966CAF7DAFD2
:100E60008EAF9FAF259729A93AA94BA95CA9CA01C2
:100E7000B9010E94001129962CAD3DAD4EAD5FAD7C
:100E800029970E94A30E2DA13EA14FA158A50E9413
:100E9000A30E2DA93EA94FA958AD0E94A40E6DAB7B
:100EA0007EAB8FAB98AF2DA53EA54FA558A9CA0123
:100EB000B9010E94A40E6DA37EA38FA398A72D81D4
:100EC0003E814F815885C301B2010E9400112B0160
:100ED0003C0129893A894B895C896D897E898F8992
:100EE000988D0E9400119B01AC01C301B2010E94C8
:100EF000A40E2B013C0121962CAD3DAD4EAD5FAD56
:100F0000219769AD7AAD8BAD9CAD0E9400119B011C
:100F1000AC01C301B2010E94A40E9B01AC010E946E
:100F2000A40E6D8B7E8B8F8B988F2DA13EA14FA130
:100F300058A5A1966CAD7DAD8EAD9FADA1970E94D9
:100F400000112B013C012D893E894F89588D6D81FF
:100F50007E818F8198850E9400119B01AC01C301A5
:100F6000B2010E94A40E69AF7AAF8BAF9CAF2DA1E6
:100F70003EA14FA158A5A5966CAD7DAD8EAD9FADA0
:100F8000A5970E9400112B013C012D893E894F89B4
:100F9000588D69897A898B899C890E9400119B01EF
:100FA000AC01C301B2010E94A40E698B7A8B8B8BBA
:100FB0009C8B2DA13EA14FA158A5A9966CAD7DADEE
:100FC0008EAD9FADA9970E9400112B013C012D8988
:100FD0003E894F89588D21966CAD7DAD8EAD9FAD0C
:100FE00021970E9400119B01AC01C301B2010E9434
:100FF000A40E6D8B7E8B8F8B988F2DA93EA94FA948
:1010000058AD69966CAD7DAD8EAD9FAD69970E9470
:1010100000112B013C0125962CAD3DAD4EAD5FADD1
:1010200025976D966CAD7DAD8EAD9FAD6D970E9491
:1010300000119B01AC01C301B2010E94A30E6D839C
:101040007E838F8398872D893E894F89588D6D8542
:101050007E858F8598890E9400112B013C0129898A
:101060003A894B895C8969857A858B859C850E9444
:1010700000119B01AC01C301B2010E94A30E9B01B0
:10108000AC016D817E818F8198850E94A40E6D8355
:101090007E838F83988729A53AA54BA55CA56D967D
:1010A0006CAD7DAD8EAD9FAD6D970E9400112B0193
:1010B0003C012DA93EA94FA958AD65966CAD7DADFB
:1010C0008EAD9FAD65970E9400119B01AC01C301DD
:1010D000B2010E94A30E6DA37EA38FA398A729AD92
:1010E0003AAD4BAD5CAD69857A858B859C850E9458
:1010F00000112B013C012D893E894F89588D698152
:101100007A818B819C810E9400119B01AC01C301FB
:10111000B2010E94A30E9B01AC016DA17EA18FA123
:1011200098A50E94A40E2B013C0125962CAD3DAD47
:101130004EAD5FAD259765966CAD7DAD8EAD9FAD27
:1011400065970E94001169877A878B879C8729A5FC
:101150003AA54BA55CA569966CAD7DAD8EAD9FADF6
:1011600069970E9400119B01AC0169857A858B8586
:101170009C850E94A30E69877A878B879C87298923
:101180003A894B895C8969817A818B819C810E9433
:10119000001169837A838B839C8329AD3AAD4BAD73
:1011A0005CAD6D857E858F8598890E9400119B01BD
:1011B000AC0169817A818B819C810E94A30E9B0185
:1011C000AC0169857A858B859C850E94A40E698314
:1011D0007A838B839C832AE037ED43EA5BE36D815E
:1011E0007E818F8198850E94001120916806309140
:1011F000690640916A0650916B060E94A40E6D87A5
:101200007E878F87988B60936806709369068093BA
:101210006A0690936B062AE037ED43EA5BE3C3016D
:10122000B2010E9400112091640630916506409140
:101230006606509167060E94A40E69877A878B879D
:101240009C8760936406709365068093660690930E
:1012500067062AE037ED43EA5BE369817A818B8197
:101260009C810E940011209160063091610640919E
:101270006206509163060E94A40E698B7A8B8B8B59
:101280009C8B6093600670936106809362069093D6
:1012900063062D813E814F815885CA01B9010E94A4
:1012A000A40EA60195010E94A40E9B01AC016D85C0
:1012B0007E858F8598890E94A40E6D877E878F8793
:1012C000988BA3019201C301B2010E94A40ECD57D5
:1012D000DF4F288139814A815B81C358D0400E9409
:1012E000A40E9B01AC0169857A858B859C850E9443
:1012F000A40E69877A878B879C8729813A814B81E5
:101300005C81CA01B9010E94A40EC957DF4F288130
:1013100039814A815B81C758D0400E94A40E9B014D
:10132000AC0169897A898B899C890E94A40E2B0162
:101330003C018091640090916500A0916600B0919D
:10134000670089839A83AB83BC836D8D7E8D8F8D7F
:1013500098A190582D853E854F8558890E9400118F
:101360006B017C0129853A854B855C85698D7A8D79
:101370008B8D9C8D0E9400119B01AC01C701B601B1
:101380000E94A30E6B017C01A301920169A17AA1C5
:101390008BA19CA10E9400119B01AC01C701B60169
:1013A0000E94A30E29813A814B815C810E94001129
:1013B0009B01AC0169A97AA98BA99CA90E94A40EE2
:1013C0004B015C019B01AC016D857E858F85988901
:1013D0000E9400116B017C01A3019201698D7A8D3D
:1013E0008B8D9C8D0E9400119B01AC01C701B60141
:1013F0000E94A40E6B017C0129853A854B855C8592
:1014000069A17AA18BA19CA10E9400119B01AC0152
:10141000C701B6010E94A30E9B01AC0169817A81CC
:101420008B819C810E9400119B01AC016D8D7E8D92
:101430008F8D98A10E94A40E6D8F7E8F8F8F98A3A1
:10144000A501940169857A858B859C850E94001190
:101450006B017C012D8D3E8D4F8D58A1C301B201D2
:101460000E9400119B01AC01C701B6010E94A30EAE
:101470006B017C012D853E854F85588969A17AA134
:101480008BA19CA10E9400119B01AC01C701B60178
:101490000E94A40E9B01AC0169817A818B819C81A1
:1014A0000E9400119B01AC01698D7A8D8B8D9C8D02
:1014B0000E94A40E698F7A8F8B8F9C8FA501940157
:1014C000C301B2010E9400116B017C012D8D3E8D84
:1014D0004F8D58A169857A858B859C850E94001166
:1014E0009B01AC01C701B6010E94A40E6B017C01F7
:1014F000298D3A8D4B8D5C8D6D857E858F85988984
:101500000E9400119B01AC01C701B6010E94A30E0D
:101510009B01AC0169817A818B819C810E940011C1
:101520009B01AC0169A17AA18BA19CA10E94A40E90
:101530002B013C01A5019401C501B4010E940011D9
:101540006B017C012D8D3E8D4F8D58A1CA01B901D3
:101550000E9400119B01AC01C701B6010E94A40EBC
:101560006B017C01298D3A8D4B8D5C8DCA01B901CF
:101570000E9400119B01AC01C701B6010E94A40E9C
:101580006B017C01A3019201C301B2010E94001111
:101590009B01AC01C701B6010E94A40E0E94671115
:1015A0006B017C019B01AC01C501B4010E94810F5C
:1015B0006093600070936100809362009093630079
:1015C000A70196016D8D7E8D8F8D98A10E94810F50
:1015D00060937406709375068093760690937706F1
:1015E000A7019601698D7A8D8B8D9C8D0E94810F4C
:1015F00060937006709371068093720690937306E1
:10160000A7019601C301B2010E94810F60936C068D
:1016100070936D0680936E0690936F06C059DF4FEE
:101620000FB6F894DEBF0FBECDBFDF91CF911F91F3
:101630000F91FF90EF90DF90CF90BF90AF909F9071
:101640008F907F906F905F904F9008954F925F9230
:101650006F927F928F929F92AF92BF92CF92DF92C2
:10166000EF92FF92CF93DF93CDB7DEB764970FB6BB
:10167000F894DEBF0FBECDBF8090600090906100F7
:10168000A0906200B0906300A5019401C501B4016F
:101690000E94A40E6D837E838F8398879B01AC018B
:1016A000C501B4010E9400119B01AC0160E070E033
:1016B00080E89FE30E94A30E69877A878B879C87C7
:1016C000409074065090750660907606709077068C
:1016D000A3019201C301B2010E94A40E4B015C015F
:1016E0008091700690917106A0917206B091730678
:1016F00089839A83AB83BC83C0906C06D0906D06BF
:10170000E0906E06F0906F06A5019401C301B2014E
:101710000E9400119B01AC0169857A858B859C85AF
:101720000E94A40E6D877E878F87988B29813A81CE
:101730004B815C81C501B4010E940011698B7A8BD9
:101740008B8B9C8BA70196016D817E818F81988503
:101750000E9400119B01AC0169897A898B899C895F
:101760000E94A40E2D853E854F8558890E942E0F1C
:1017700023E333E345E652E40E9400116093F00650
:101780007093F1068093F2069093F306A7019601F9
:10179000C501B4010E9400114B015C0129813A810D
:1017A0004B815C816D817E818F8198850E940011C3
:1017B0009B01AC01C501B4010E94A30E0E94080F59
:1017C000905823E333E345E652E40E94001160930E
:1017D000F4067093F5068093F6069093F706A7013A
:1017E0009601C701B6010E94A40E9B01AC01C7017E
:1017F000B6010E9400119B01AC0169857A858B8539
:101800009C850E94A40E4B015C0129813A814B8189
:101810005C81CA01B9010E94A40E9B01AC01C70101
:10182000B6010E9400116B017C01A30192016D8140
:101830007E818F8198850E9400119B01AC01C701B8
:10184000B6010E94A40EA50194010E942E0F23E36D
:1018500033E345E652E40E9400116093F80670936A
:10186000F9068093FA069093FB0664960FB6F894F7
:10187000DEBF0FBECDBFDF91CF91FF90EF90DF9025
:10188000CF90BF90AF909F908F907F906F905F9020
:101890004F9008958FEB87BB8FE088BB8FEF84BBA1
:1018A00085BB87EF81BB12BA08957F928F929F927A
:1018B000AF92BF92CF92DF92EF92FF920F931F935E
:1018C000CF93DF938CEF96E00E9432030F2EF4E665
:1018D0007F2EF02DC0E0D0E000E010E0E12CF12CF4
:1018E0000F2EF4E0AF2EF7E0BF2EF02D0F2EF6E016
:1018F000CF2EF7E0DF2EF02D0F2EF8E08F2EF7E041
:101900009F2EF02D87EC90E00197F1F700C00000CA
:101910008CEF96E00E943203F50180819181E80E00
:10192000F91EF60180819181080F191FF401808151
:101930009181C80FD91F7A9429F7882799278E1982
:101940009F0924E630E0B9010E94BD11472F609342
:10195000B8067093B90688279927801B910BB901A7
:101960000E94BD117093B7066093B6068827992729
:101970008C1B9D0BB9010E94BD117093A906609349
:10198000A806642F83E10E94F8016091B80684E103
:101990000E94F8016091B70685E10E94F80160910C
:1019A000B60686E10E94F8016091A90687E10E94CF
:1019B000F8016091A80688E10E94F801DF91CF91BB
:1019C0001F910F91FF90EF90DF90CF90BF90AF905D
:1019D0009F908F907F9008954F925F926F927F9229
:1019E0008F929F92AF92BF92CF92DF92EF92FF922F
:1019F0000F931F93CF93DF93862E69017A0166239D
:101A0000D9F1A82EB92EC02FD12F912CF50101911B
:101A100011915F01A701960160E070E080E89FE30B
:101A20000E94A30E2B013C0168817981882777FDF4
:101A30008095982F0E941C109B01AC01C301B2013C
:101A40000E9400112B013C01B801882777FD809589
:101A5000982F0E941C10A70196010E9400119B0163
:101A6000AC01C301B2010E94A40E0E94E90F699368
:101A7000799393949810CACFDF91CF911F910F91D2
:101A8000FF90EF90DF90CF90BF90AF909F908F909E
:101A90007F906F905F904F900895CF93DF93CDB775
:101AA000DEB72A970FB6F894DEBF0FBECDBF0E94F7
:101AB0004A0C0E94AE000E940C020E9444020E9446
:101AC000550C0F2EFEE02F2EF7E03F2EF02D1DBC03
:101AD0001CBC8CEF96E00E94320306EC16E02FE867
:101AE00032EC45E75DE36AE08CEF96E00E94EC0C97
:101AF000EEECF6E060817181882777FD8095982F64
:101B00000E941C1020E931EC49E75DE30E940011BE
:101B10005B016C01E2E8F6E060837183828393836A
:101B2000E0EDF6E060817181882777FD8095982F40
:101B30000E941C1020E931EC49E75DE30E9400118E
:101B4000862E972EE82E9987292F862F992DAE2D38
:101B5000B22FE6E8F6E080839183A283B383E2EDBF
:101B6000F6E060817181882777FD8095982F0E942B
:101B70001C1020E931EC49E75DE30E9400116A87FF
:101B8000172F082FF92E862F912FA02FBF2DEAE8AF
:101B9000F6E080839183A283B383E2E0F7E0608183
:101BA0007181882777FD8095982F0E941C1069838A
:101BB0007A838B839C83E0E0F7E080819181BC0194
:101BC000882777FD8095982F0E941C106D837E8357
:101BD0008F839887EEEFF6E080819181BC018827A2
:101BE00077FD8095982F0E941C102B013C01F1017C
:101BF00080819181919581959109BC01882777FD1C
:101C00008095982F0E941C109F938F937F936F93C2
:101C1000EAE0F7E080819181BC01882777FD80951B
:101C2000982F0E941C109F938F937F936F93ECE0EB
:101C3000F7E080819181BC01882777FD8095982FFE
:101C40000E941C109F938F937F936F93FF920F932B
:101C50001F93FA85FF9389858F93EF929F928F92BE
:101C6000E980FA800B811C812D813E814F8158854E
:101C7000C301B2010E9428040E94260B6091F00665
:101C80007091F1068091F2069091F3060E94E90F9F
:101C9000DC01CB0121E040E060E00E94640121E032
:101CA00042E360E0EAE0F7E0808191810E94640114
:101CB0006091F4067091F5068091F6069091F70612
:101CC0000E94E90FDC01CB0121E040E062E00E94CC
:101CD000640121E042E362E0ECE0F7E08081918181
:101CE0000E9464016091F8067091F9068091FA06ED
:101CF0009091FB060E94E90FDC01CB0121E040E05E
:101D000064E00E94640121E042E364E0F10180812B
:101D100091810E94640121E040E066E080915E06CE
:101D200090915F060E94640121E042E366E08091A9
:101D30007C0690917D060E9464010FB6F894DEBF88
:101D40000FBECDBFC4CE5058BB27AA270ED017C296
:101D500008D230F00DD220F031F49F3F11F41EF480
:101D6000C7C10EF4E095E7FBBDC1E92F19D280F39E
:101D7000BA17620773078407950718F071F49EF588
:101D800031C20EF4E0950B2EBA2FA02D0B01B90134
:101D900090010C01CA01A0011124FF27591B99F0E1
:101DA000593F50F4503E68F11A16F040A22F232FED
:101DB000342F4427585FF3CF469537952795A7953D
:101DC000F0405395C9F77EF41F16BA0B620B730BE4
:101DD000840BBAF09150A1F0FF0FBB1F661F771F55
:101DE000881FC2F70EC0BA0F621F731F841F48F40A
:101DF000879577956795B795F7959E3F08F0B3CF90
:101E00009395880F08F09927EE0F97958795089579
:101E10009F939F77EEE389379E0720F4E4E5F0E097
:101E20008FD109C044D19058A2EA2AED3FE049EC95
:101E30005FE39BDFA4D10F9007FC9058089591D1E8
:101E400058F080E891E009F49EEF92D128F040E844
:101E500051E059F45EEF09C04BC1C4C1E92FE078ED
:101E60009FD168F3092E052AC1F3261737074807C3
:101E7000590738F00E2E07F8E02569F0E025E064F8
:101E80000AC0EF6307F8009407FADB01B9019D016E
:101E9000DC01CA01AD01EF9343D071D10AD05F914B
:101EA000552331F02BED3FE049E450FD49EC4CCF98
:101EB0000895DF93DD27B92FBF7740E85FE316165B
:101EC000170648075B0710F4D92F93D19F938F9380
:101ED0007F936F933AD2E8E6F0E00DD150D12F9185
:101EE0003F914F915F9198D1DD2349F09058A2EA3C
:101EF0002AED3FE049EC5FE3D0785D2736DFDF91E4
:101F00003EC10CD03CC134D140F02BD130F021F493
:101F10005F3F19F0E7C0511166C1EAC041D198F3A3
:101F20009923C9F35523B1F3951B550BBB27AA275A
:101F300062177307840738F09F5F5F4F220F331FCC
:101F4000441FAA1FA9F333D00E2E3AF0E0E830D098
:101F500091505040E695001CCAF729D0FE2F27D09B
:101F6000660F771F881FBB1F261737074807AB0769
:101F7000B0E809F0BB0B802DBF01FF2793585F4FDE
:101F80002AF09E3F510568F0ADC02DC15F3FECF3D4
:101F9000983EDCF3869577956795B795F7959F5FA3
:101FA000C9F7880F911D9695879597F90895E1E0F7
:101FB000660F771F881FBB1F621773078407BA0756
:101FC00020F0621B730B840BBA0BEE1F88F7E095B1
:101FD000089504D06894B11106C10895E9D088F03D
:101FE0009F5790F0B92F9927B751A0F0D1F0660F05
:101FF000771F881F991F1AF0BA95C9F712C0B13020
:1020000081F0F0D0B1E00895EDC0672F782F8827D8
:10201000B85F39F0B93FCCF3869577956795B3955E
:10202000D9F73EF490958095709561957F4F8F4FCD
:102030009F4F0895E89409C097FB3EF490958095D2
:10204000709561957F4F8F4F9F4F9923A9F0F92F7E
:1020500096E9BB279395F695879577956795B795FC
:10206000F111F8CFFAF4BB0F11F460FF1BC06F5FE2
:102070007F4F8F4F9F4F16C0882311F096E911C0F4
:10208000772321F09EE8872F762F05C0662371F015
:1020900096E8862F70E060E02AF09A95660F771F29
:1020A000881FDAF7880F9695879597F90895DF933B
:1020B000CF931F930F938B01EC01E5E9F0E01BD068
:1020C0005ED09801AE018B01EC0160E070E080E829
:1020D0009FE339DEFCD09801AE010F911F91CF91A3
:1020E000DF919AC097F99F6780E870E060E00895FB
:1020F0009FEF80EC0895DF93CF931F930F93FF9290
:10210000EF92DF927B018C01689405C0DA2EEF011B
:1021100083D0FE01E894A591259135914591559183
:10212000AEF3EF0122DEFE019701A801DA9479F700
:10213000DF90EF90FF900F911F91CF91DF91089565
:102140009F938F937F936F93FF93EF939B01AC01CA
:1021500057D0EF91FF91CFDF2F913F914F915F913A
:102160004FC000240A94161617061806090608958B
:1021700000240A9412161306140605060895092E63
:102180000394000C11F4882352F0BB0F40F4BF2BD2
:1021900011F460FF04C06F5F7F4F8F4F9F4F089512
:1021A00057FD9058440F551F59F05F3F71F0479508
:1021B000880F97FB991F61F09F3F79F087950895ED
:1021C000121613061406551FF2CF4695F1DF08C00C
:1021D000161617061806991FF1CF86957105610529
:1021E00008940895E894BB2766277727CB0197F9D1
:1021F00008959B01AC0160E070E080E89FE381CE30
:102200000BD0BDCFAEDF28F0B3DF18F0952309F077
:1022100069CF6ECF1124E7CFC3DFA0F3959FD1F331
:10222000950F50E0551F629FF001729FBB27F00D84
:10223000B11D639FAA27F00DB11DAA1F649F6627D9
:10224000B00DA11D661F829F2227B00DA11D621F28
:10225000739FB00DA11D621F839FA00D611D221FE2
:10226000749F3327A00D611D231F849F600D211DC6
:10227000822F762F6A2F11249F5750408AF0E1F069
:1022800088234AF0EE0FFF1FBB1F661F771F881FB2
:1022900091505040A9F79E3F510570F023CFA3CF36
:1022A0005F3FECF3983EDCF3869577956795B7959D
:1022B000F795E7959F5FC1F7FE2B880F911D9695C7
:1022C000879597F9089511F40EF412CF41C070DF8D
:1022D000D0F39923D9F3CEF39F57550B87FF46D000
:1022E0000024A0E640EA900180585695979528F47E
:1022F000805C660F771F881F20F026173707480776
:1023000030F4621B730B840B202931294A2BA695CC
:1023100017940794202531254A2758F7660F771F11
:10232000881F20F026173707480730F4620B730B1D
:10233000840B200D311D411DA09581F7B901842F1B
:102340009158880F9695879508959B01AC0158CFB9
:102350009F3F31F0915020F4879577956795B79519
:10236000880F911D9695879597F908959150504043
:10237000660F771F881FD2F7089597FB072E16F474
:10238000009407D077FD09D00E94D11107FC05D039
:102390003EF4909581959F4F0895709561957F4F7C
:1023A0000895AA1BBB1B51E107C0AA1FBB1FA6179C
:1023B000B70710F0A61BB70B881F991F5A95A9F7EE
:0E23C00080959095BC01CD010895F894FFCF53
:1023CE000000803F6F12033B1E0024FF69000000D7
:1023DE0000000000000000000000000000000000EF
:1023EE0000F8000000000000003330000000001074
:1023FE000C06100C0600000000000000000040C09B
:10240E007840C0784000043F04043F04040000708C
:10241E0088FC08300000001820FF211E0000F00884
:10242E00F000E018000000211C031E211E0000F029
:10243E000888700000001E21232419272110101671
:10244E000E00000000000000000000000000000070
:10245E0000E01804020000000007182040000002EF
:10246E000418E00000000040201807000000404063
:10247E0080F0804040000202010F010202000000C5
:10248E0000F0000000000101011F01010100000029
:10249E0000000000000080B070000000000000008E
:1024AE000000000000000001010101010101000017
:1024BE0000000000000000303000000000000000AE
:1024CE00000080601804006018060100000000E0A3
:1024DE0010080810E000000F102020100F00001050
:1024EE0010F8000000000020203F202000000070A7
:1024FE00080808887000003028242221300000309F
:10250E000888884830000018202020110E00000096
:10251E00C02010F8000000070424243F240000F817
:10252E000888880808000019212020110E0000E0FC
:10253E00108888180000000F112020110E0000389E
:10254E000808C83808000000003F000000000070B6
:10255E00880808887000001C222121221C0000E03F
:10256E0010080810E0000000312222110F000000B8
:10257E0000C0C0000000000000303000000000006D
:10258E0000800000000000008060000000000000DD
:10259E008040201008000001020408102000404076
:1025AE0040404040400004040404040404000008B9
:1025BE00102040800000002010080402010000706E
:1025CE0048080808F0000000003036010000C03056
:1025DE00C828E810E0000718272423140B00000079
:1025EE00C038E0000000203C23020227382008F803
:1025FE00888888700000203F202020110E00C030F7
:10260E00080808083800071820202010080008F8CD
:10261E0008080810E000203F202020100F0008F8C6
:10262E008888E8081000203F20202320180008F892
:10263E008888E8081000203F200003000000C0300A
:10264E0008080838000007182020221E020008F88B
:10265E0008000008F808203F210101213F20000852
:10266E0008F8080800000020203F2020000000008D
:10267E000808F8080800C08080807F00000008F875
:10268E0088C028180800203F20012638200008F8AE
:10269E00080000000000203F20202020300008F815
:1026AE00F800F8F80800203F003F003F200008F82F
:1026BE0030C00008F808203F200007183F00E01047
:1026CE0008080810E0000F10202020100F0008F856
:1026DE0008080808F000203F210101010000E01069
:1026EE0008080810E0000F18242438504F0008F88E
:1026FE00888888887000203F2000030C30200070EE
:10270E008808080838000038202121221C001808EB
:10271E0008F8080818000000203F2000000008F804
:10272E0008000008F808001F202020201F0008784D
:10273E00880000C83808000007380E010000F808AD
:10274E0000F80008F800033C0700073C03000818D7
:10275E0068808068180820302C03032C302008383D
:10276E00C800C83808000000203F200000001008F4
:10277E000808C8380800203826212020180000003C
:10278E0000FE020202000000007F40404000000CEC
:10279E0030C000000000000000010638C00000023A
:1027AE000202FE000000004040407F0000000000DA
:1027BE0004020202040000000000000000000000FD
:1027CE0000000000000080808080808080800002F9
:1027DE0002040000000000000000000000000000E5
:1027EE008080808000000019242222223F2008F8D9
:1027FE00008080000000003F112020110E0000001C
:10280E00008080800000000E1120202011000000AA
:10281E0000808088F800000E112020103F2000005C
:10282E00808080800000001F222222221300008060
:10283E0080F0888888180020203F202000000000AB
:10284E00808080808000006B94949493600008F8E0
:10285E00008080800000203F210000203F2000806B
:10286E009898000000000020203F2020000000006B
:10287E0000809898000000C08080807F000008F8DB
:10288E00000080808000203F24022D3020000008B0
:10289E0008F8000000000020203F2020000080806B
:1028AE00808080808000203F20003F20003F80807D
:1028BE00008080800000203F210000203F2000008B
:1028CE00808080800000001F202020201F0080803C
:1028DE0000808000000080FFA12020110E0000006B
:1028EE00008080808000000E112020A0FF8080805C
:1028FE0080008080800020203F2120000100000009
:10290E0080808080800000332424242419000080DD
:10291E0080E0808000000000001F202000008080EA
:10292E00000000808000001F202020103F208080AB
:10293E0080000080808000010E300806010080803B
:10294E000080008080800F300C030C300F00008060
:10295E008000808080000020312E0E31200080808B
:10296E0080000080808080818E70180601000080BB
:10297E008080808080000021302C222130000000D9
:10298E000000807C020200000000003F404000007A
:10299E000000FF00000000000000FF000000000229
:1029AE00027C800000000040403F00000000000656
:0E29BE000101020204040000000000000000FD
:00000001FF
